{
  "_format": "hh-sol-artifact-1",
  "contractName": "VariousVulpe",
  "sourceName": "contracts/VariousVulpe.sol",
  "abi": [
    {
      "inputs": [],
      "stateMutability": "nonpayable",
      "type": "constructor"
    },
    {
      "anonymous": false,
      "inputs": [
        {
          "indexed": true,
          "internalType": "address",
          "name": "owner",
          "type": "address"
        },
        {
          "indexed": true,
          "internalType": "address",
          "name": "approved",
          "type": "address"
        },
        {
          "indexed": true,
          "internalType": "uint256",
          "name": "tokenId",
          "type": "uint256"
        }
      ],
      "name": "Approval",
      "type": "event"
    },
    {
      "anonymous": false,
      "inputs": [
        {
          "indexed": true,
          "internalType": "address",
          "name": "owner",
          "type": "address"
        },
        {
          "indexed": true,
          "internalType": "address",
          "name": "operator",
          "type": "address"
        },
        {
          "indexed": false,
          "internalType": "bool",
          "name": "approved",
          "type": "bool"
        }
      ],
      "name": "ApprovalForAll",
      "type": "event"
    },
    {
      "anonymous": false,
      "inputs": [
        {
          "indexed": true,
          "internalType": "address",
          "name": "previousOwner",
          "type": "address"
        },
        {
          "indexed": true,
          "internalType": "address",
          "name": "newOwner",
          "type": "address"
        }
      ],
      "name": "OwnershipTransferred",
      "type": "event"
    },
    {
      "anonymous": false,
      "inputs": [
        {
          "indexed": true,
          "internalType": "address",
          "name": "from",
          "type": "address"
        },
        {
          "indexed": true,
          "internalType": "address",
          "name": "to",
          "type": "address"
        },
        {
          "indexed": true,
          "internalType": "uint256",
          "name": "tokenId",
          "type": "uint256"
        }
      ],
      "name": "Transfer",
      "type": "event"
    },
    {
      "inputs": [
        {
          "internalType": "address",
          "name": "to",
          "type": "address"
        },
        {
          "internalType": "uint256",
          "name": "tokenId",
          "type": "uint256"
        }
      ],
      "name": "approve",
      "outputs": [],
      "stateMutability": "nonpayable",
      "type": "function"
    },
    {
      "inputs": [
        {
          "internalType": "address",
          "name": "owner",
          "type": "address"
        }
      ],
      "name": "balanceOf",
      "outputs": [
        {
          "internalType": "uint256",
          "name": "",
          "type": "uint256"
        }
      ],
      "stateMutability": "view",
      "type": "function"
    },
    {
      "inputs": [
        {
          "internalType": "uint256",
          "name": "tokenId",
          "type": "uint256"
        }
      ],
      "name": "getApproved",
      "outputs": [
        {
          "internalType": "address",
          "name": "",
          "type": "address"
        }
      ],
      "stateMutability": "view",
      "type": "function"
    },
    {
      "inputs": [
        {
          "internalType": "address",
          "name": "owner",
          "type": "address"
        },
        {
          "internalType": "address",
          "name": "operator",
          "type": "address"
        }
      ],
      "name": "isApprovedForAll",
      "outputs": [
        {
          "internalType": "bool",
          "name": "",
          "type": "bool"
        }
      ],
      "stateMutability": "view",
      "type": "function"
    },
    {
      "inputs": [],
      "name": "name",
      "outputs": [
        {
          "internalType": "string",
          "name": "",
          "type": "string"
        }
      ],
      "stateMutability": "view",
      "type": "function"
    },
    {
      "inputs": [],
      "name": "owner",
      "outputs": [
        {
          "internalType": "address",
          "name": "",
          "type": "address"
        }
      ],
      "stateMutability": "view",
      "type": "function"
    },
    {
      "inputs": [
        {
          "internalType": "uint256",
          "name": "tokenId",
          "type": "uint256"
        }
      ],
      "name": "ownerOf",
      "outputs": [
        {
          "internalType": "address",
          "name": "",
          "type": "address"
        }
      ],
      "stateMutability": "view",
      "type": "function"
    },
    {
      "inputs": [],
      "name": "renounceOwnership",
      "outputs": [],
      "stateMutability": "nonpayable",
      "type": "function"
    },
    {
      "inputs": [
        {
          "internalType": "address",
          "name": "to",
          "type": "address"
        }
      ],
      "name": "safeMint",
      "outputs": [],
      "stateMutability": "nonpayable",
      "type": "function"
    },
    {
      "inputs": [
        {
          "internalType": "address",
          "name": "from",
          "type": "address"
        },
        {
          "internalType": "address",
          "name": "to",
          "type": "address"
        },
        {
          "internalType": "uint256",
          "name": "tokenId",
          "type": "uint256"
        }
      ],
      "name": "safeTransferFrom",
      "outputs": [],
      "stateMutability": "nonpayable",
      "type": "function"
    },
    {
      "inputs": [
        {
          "internalType": "address",
          "name": "from",
          "type": "address"
        },
        {
          "internalType": "address",
          "name": "to",
          "type": "address"
        },
        {
          "internalType": "uint256",
          "name": "tokenId",
          "type": "uint256"
        },
        {
          "internalType": "bytes",
          "name": "_data",
          "type": "bytes"
        }
      ],
      "name": "safeTransferFrom",
      "outputs": [],
      "stateMutability": "nonpayable",
      "type": "function"
    },
    {
      "inputs": [
        {
          "internalType": "address",
          "name": "operator",
          "type": "address"
        },
        {
          "internalType": "bool",
          "name": "approved",
          "type": "bool"
        }
      ],
      "name": "setApprovalForAll",
      "outputs": [],
      "stateMutability": "nonpayable",
      "type": "function"
    },
    {
      "inputs": [
        {
          "internalType": "bytes4",
          "name": "interfaceId",
          "type": "bytes4"
        }
      ],
      "name": "supportsInterface",
      "outputs": [
        {
          "internalType": "bool",
          "name": "",
          "type": "bool"
        }
      ],
      "stateMutability": "view",
      "type": "function"
    },
    {
      "inputs": [],
      "name": "symbol",
      "outputs": [
        {
          "internalType": "string",
          "name": "",
          "type": "string"
        }
      ],
      "stateMutability": "view",
      "type": "function"
    },
    {
      "inputs": [
        {
          "internalType": "uint256",
          "name": "index",
          "type": "uint256"
        }
      ],
      "name": "tokenByIndex",
      "outputs": [
        {
          "internalType": "uint256",
          "name": "",
          "type": "uint256"
        }
      ],
      "stateMutability": "view",
      "type": "function"
    },
    {
      "inputs": [
        {
          "internalType": "address",
          "name": "owner",
          "type": "address"
        },
        {
          "internalType": "uint256",
          "name": "index",
          "type": "uint256"
        }
      ],
      "name": "tokenOfOwnerByIndex",
      "outputs": [
        {
          "internalType": "uint256",
          "name": "",
          "type": "uint256"
        }
      ],
      "stateMutability": "view",
      "type": "function"
    },
    {
      "inputs": [
        {
          "internalType": "uint256",
          "name": "tokenId",
          "type": "uint256"
        }
      ],
      "name": "tokenURI",
      "outputs": [
        {
          "internalType": "string",
          "name": "",
          "type": "string"
        }
      ],
      "stateMutability": "view",
      "type": "function"
    },
    {
      "inputs": [],
      "name": "totalSupply",
      "outputs": [
        {
          "internalType": "uint256",
          "name": "",
          "type": "uint256"
        }
      ],
      "stateMutability": "view",
      "type": "function"
    },
    {
      "inputs": [
        {
          "internalType": "address",
          "name": "from",
          "type": "address"
        },
        {
          "internalType": "address",
          "name": "to",
          "type": "address"
        },
        {
          "internalType": "uint256",
          "name": "tokenId",
          "type": "uint256"
        }
      ],
      "name": "transferFrom",
      "outputs": [],
      "stateMutability": "nonpayable",
      "type": "function"
    },
    {
      "inputs": [
        {
          "internalType": "address",
          "name": "newOwner",
          "type": "address"
        }
      ],
      "name": "transferOwnership",
      "outputs": [],
      "stateMutability": "nonpayable",
      "type": "function"
    }
  ],
  "bytecode": "0x60806040523480156200001157600080fd5b506040518060400160405280600c81526020017f566172696f757356756c706500000000000000000000000000000000000000008152506040518060400160405280600381526020017f5656500000000000000000000000000000000000000000000000000000000000815250816000908051906020019062000096929190620001a6565b508060019080519060200190620000af929190620001a6565b505050620000d2620000c6620000d860201b60201c565b620000e060201b60201c565b620002bb565b600033905090565b6000600a60009054906101000a900473ffffffffffffffffffffffffffffffffffffffff16905081600a60006101000a81548173ffffffffffffffffffffffffffffffffffffffff021916908373ffffffffffffffffffffffffffffffffffffffff1602179055508173ffffffffffffffffffffffffffffffffffffffff168173ffffffffffffffffffffffffffffffffffffffff167f8be0079c531659141344cd1fd0a4f28419497f9722a3daafe3b4186f6b6457e060405160405180910390a35050565b828054620001b49062000256565b90600052602060002090601f016020900481019282620001d8576000855562000224565b82601f10620001f357805160ff191683800117855562000224565b8280016001018555821562000224579182015b828111156200022357825182559160200191906001019062000206565b5b50905062000233919062000237565b5090565b5b808211156200025257600081600090555060010162000238565b5090565b600060028204905060018216806200026f57607f821691505b602082108114156200028657620002856200028c565b5b50919050565b7f4e487b7100000000000000000000000000000000000000000000000000000000600052602260045260246000fd5b61344f80620002cb6000396000f3fe608060405234801561001057600080fd5b506004361061012c5760003560e01c80636352211e116100ad578063a22cb46511610071578063a22cb46514610343578063b88d4fde1461035f578063c87b56dd1461037b578063e985e9c5146103ab578063f2fde38b146103db5761012c565b80636352211e1461029d57806370a08231146102cd578063715018a6146102fd5780638da5cb5b1461030757806395d89b41146103255761012c565b806323b872dd116100f457806323b872dd146101e95780632f745c591461020557806340d097c31461023557806342842e0e146102515780634f6ccce71461026d5761012c565b806301ffc9a71461013157806306fdde0314610161578063081812fc1461017f578063095ea7b3146101af57806318160ddd146101cb575b600080fd5b61014b600480360381019061014691906123df565b6103f7565b604051610158919061282b565b60405180910390f35b610169610409565b6040516101769190612846565b60405180910390f35b61019960048036038101906101949190612431565b61049b565b6040516101a691906127c4565b60405180910390f35b6101c960048036038101906101c491906123a3565b610520565b005b6101d3610638565b6040516101e09190612aa8565b60405180910390f35b61020360048036038101906101fe919061229d565b610645565b005b61021f600480360381019061021a91906123a3565b6106a5565b60405161022c9190612aa8565b60405180910390f35b61024f600480360381019061024a9190612238565b61074a565b005b61026b6004803603810190610266919061229d565b6107ec565b005b61028760048036038101906102829190612431565b61080c565b6040516102949190612aa8565b60405180910390f35b6102b760048036038101906102b29190612431565b6108a3565b6040516102c491906127c4565b60405180910390f35b6102e760048036038101906102e29190612238565b610955565b6040516102f49190612aa8565b60405180910390f35b610305610a0d565b005b61030f610a95565b60405161031c91906127c4565b60405180910390f35b61032d610abf565b60405161033a9190612846565b60405180910390f35b61035d60048036038101906103589190612367565b610b51565b005b610379600480360381019061037491906122ec565b610b67565b005b61039560048036038101906103909190612431565b610bc9565b6040516103a29190612846565b60405180910390f35b6103c560048036038101906103c09190612261565b610c70565b6040516103d2919061282b565b60405180910390f35b6103f560048036038101906103f09190612238565b610d04565b005b600061040282610dfc565b9050919050565b60606000805461041890612ccd565b80601f016020809104026020016040519081016040528092919081815260200182805461044490612ccd565b80156104915780601f1061046657610100808354040283529160200191610491565b820191906000526020600020905b81548152906001019060200180831161047457829003601f168201915b5050505050905090565b60006104a682610e76565b6104e5576040517f08c379a00000000000000000000000000000000000000000000000000000000081526004016104dc906129e8565b60405180910390fd5b6004600083815260200190815260200160002060009054906101000a900473ffffffffffffffffffffffffffffffffffffffff169050919050565b600061052b826108a3565b90508073ffffffffffffffffffffffffffffffffffffffff168373ffffffffffffffffffffffffffffffffffffffff16141561059c576040517f08c379a000000000000000000000000000000000000000000000000000000000815260040161059390612a48565b60405180910390fd5b8073ffffffffffffffffffffffffffffffffffffffff166105bb610ee2565b73ffffffffffffffffffffffffffffffffffffffff1614806105ea57506105e9816105e4610ee2565b610c70565b5b610629576040517f08c379a000000000000000000000000000000000000000000000000000000000815260040161062090612968565b60405180910390fd5b6106338383610eea565b505050565b6000600880549050905090565b610656610650610ee2565b82610fa3565b610695576040517f08c379a000000000000000000000000000000000000000000000000000000000815260040161068c90612a68565b60405180910390fd5b6106a0838383611081565b505050565b60006106b083610955565b82106106f1576040517f08c379a00000000000000000000000000000000000000000000000000000000081526004016106e890612868565b60405180910390fd5b600660008473ffffffffffffffffffffffffffffffffffffffff1673ffffffffffffffffffffffffffffffffffffffff168152602001908152602001600020600083815260200190815260200160002054905092915050565b610752610ee2565b73ffffffffffffffffffffffffffffffffffffffff16610770610a95565b73ffffffffffffffffffffffffffffffffffffffff16146107c6576040517f08c379a00000000000000000000000000000000000000000000000000000000081526004016107bd90612a08565b60405180910390fd5b60006107d2600b6112e8565b90506107de600b6112f6565b6107e8828261130c565b5050565b61080783838360405180602001604052806000815250610b67565b505050565b6000610816610638565b8210610857576040517f08c379a000000000000000000000000000000000000000000000000000000000815260040161084e90612a88565b60405180910390fd5b60088281548110610891577f4e487b7100000000000000000000000000000000000000000000000000000000600052603260045260246000fd5b90600052602060002001549050919050565b6000806002600084815260200190815260200160002060009054906101000a900473ffffffffffffffffffffffffffffffffffffffff169050600073ffffffffffffffffffffffffffffffffffffffff168173ffffffffffffffffffffffffffffffffffffffff16141561094c576040517f08c379a0000000000000000000000000000000000000000000000000000000008152600401610943906129a8565b60405180910390fd5b80915050919050565b60008073ffffffffffffffffffffffffffffffffffffffff168273ffffffffffffffffffffffffffffffffffffffff1614156109c6576040517f08c379a00000000000000000000000000000000000000000000000000000000081526004016109bd90612988565b60405180910390fd5b600360008373ffffffffffffffffffffffffffffffffffffffff1673ffffffffffffffffffffffffffffffffffffffff168152602001908152602001600020549050919050565b610a15610ee2565b73ffffffffffffffffffffffffffffffffffffffff16610a33610a95565b73ffffffffffffffffffffffffffffffffffffffff1614610a89576040517f08c379a0000000000000000000000000000000000000000000000000000000008152600401610a8090612a08565b60405180910390fd5b610a93600061132a565b565b6000600a60009054906101000a900473ffffffffffffffffffffffffffffffffffffffff16905090565b606060018054610ace90612ccd565b80601f0160208091040260200160405190810160405280929190818152602001828054610afa90612ccd565b8015610b475780601f10610b1c57610100808354040283529160200191610b47565b820191906000526020600020905b815481529060010190602001808311610b2a57829003601f168201915b5050505050905090565b610b63610b5c610ee2565b83836113f0565b5050565b610b78610b72610ee2565b83610fa3565b610bb7576040517f08c379a0000000000000000000000000000000000000000000000000000000008152600401610bae90612a68565b60405180910390fd5b610bc38484848461155d565b50505050565b6060610bd482610e76565b610c13576040517f08c379a0000000000000000000000000000000000000000000000000000000008152600401610c0a90612a28565b60405180910390fd5b6000610c1d6115b9565b90506000815111610c3d5760405180602001604052806000815250610c68565b80610c47846115d9565b604051602001610c589291906127a0565b6040516020818303038152906040525b915050919050565b6000600560008473ffffffffffffffffffffffffffffffffffffffff1673ffffffffffffffffffffffffffffffffffffffff16815260200190815260200160002060008373ffffffffffffffffffffffffffffffffffffffff1673ffffffffffffffffffffffffffffffffffffffff16815260200190815260200160002060009054906101000a900460ff16905092915050565b610d0c610ee2565b73ffffffffffffffffffffffffffffffffffffffff16610d2a610a95565b73ffffffffffffffffffffffffffffffffffffffff1614610d80576040517f08c379a0000000000000000000000000000000000000000000000000000000008152600401610d7790612a08565b60405180910390fd5b600073ffffffffffffffffffffffffffffffffffffffff168173ffffffffffffffffffffffffffffffffffffffff161415610df0576040517f08c379a0000000000000000000000000000000000000000000000000000000008152600401610de7906128a8565b60405180910390fd5b610df98161132a565b50565b60007f780e9d63000000000000000000000000000000000000000000000000000000007bffffffffffffffffffffffffffffffffffffffffffffffffffffffff1916827bffffffffffffffffffffffffffffffffffffffffffffffffffffffff19161480610e6f5750610e6e82611786565b5b9050919050565b60008073ffffffffffffffffffffffffffffffffffffffff166002600084815260200190815260200160002060009054906101000a900473ffffffffffffffffffffffffffffffffffffffff1673ffffffffffffffffffffffffffffffffffffffff1614159050919050565b600033905090565b816004600083815260200190815260200160002060006101000a81548173ffffffffffffffffffffffffffffffffffffffff021916908373ffffffffffffffffffffffffffffffffffffffff160217905550808273ffffffffffffffffffffffffffffffffffffffff16610f5d836108a3565b73ffffffffffffffffffffffffffffffffffffffff167f8c5be1e5ebec7d5bd14f71427d1e84f3dd0314c0f7b2291e5b200ac8c7c3b92560405160405180910390a45050565b6000610fae82610e76565b610fed576040517f08c379a0000000000000000000000000000000000000000000000000000000008152600401610fe490612948565b60405180910390fd5b6000610ff8836108a3565b90508073ffffffffffffffffffffffffffffffffffffffff168473ffffffffffffffffffffffffffffffffffffffff16148061103a57506110398185610c70565b5b8061107857508373ffffffffffffffffffffffffffffffffffffffff166110608461049b565b73ffffffffffffffffffffffffffffffffffffffff16145b91505092915050565b8273ffffffffffffffffffffffffffffffffffffffff166110a1826108a3565b73ffffffffffffffffffffffffffffffffffffffff16146110f7576040517f08c379a00000000000000000000000000000000000000000000000000000000081526004016110ee906128c8565b60405180910390fd5b600073ffffffffffffffffffffffffffffffffffffffff168273ffffffffffffffffffffffffffffffffffffffff161415611167576040517f08c379a000000000000000000000000000000000000000000000000000000000815260040161115e90612908565b60405180910390fd5b611172838383611868565b61117d600082610eea565b6001600360008573ffffffffffffffffffffffffffffffffffffffff1673ffffffffffffffffffffffffffffffffffffffff16815260200190815260200160002060008282546111cd9190612be3565b925050819055506001600360008473ffffffffffffffffffffffffffffffffffffffff1673ffffffffffffffffffffffffffffffffffffffff16815260200190815260200160002060008282546112249190612b5c565b92505081905550816002600083815260200190815260200160002060006101000a81548173ffffffffffffffffffffffffffffffffffffffff021916908373ffffffffffffffffffffffffffffffffffffffff160217905550808273ffffffffffffffffffffffffffffffffffffffff168473ffffffffffffffffffffffffffffffffffffffff167fddf252ad1be2c89b69c2b068fc378daa952ba7f163c4a11628f55a4df523b3ef60405160405180910390a46112e3838383611878565b505050565b600081600001549050919050565b6001816000016000828254019250508190555050565b61132682826040518060200160405280600081525061187d565b5050565b6000600a60009054906101000a900473ffffffffffffffffffffffffffffffffffffffff16905081600a60006101000a81548173ffffffffffffffffffffffffffffffffffffffff021916908373ffffffffffffffffffffffffffffffffffffffff1602179055508173ffffffffffffffffffffffffffffffffffffffff168173ffffffffffffffffffffffffffffffffffffffff167f8be0079c531659141344cd1fd0a4f28419497f9722a3daafe3b4186f6b6457e060405160405180910390a35050565b8173ffffffffffffffffffffffffffffffffffffffff168373ffffffffffffffffffffffffffffffffffffffff16141561145f576040517f08c379a000000000000000000000000000000000000000000000000000000000815260040161145690612928565b60405180910390fd5b80600560008573ffffffffffffffffffffffffffffffffffffffff1673ffffffffffffffffffffffffffffffffffffffff16815260200190815260200160002060008473ffffffffffffffffffffffffffffffffffffffff1673ffffffffffffffffffffffffffffffffffffffff16815260200190815260200160002060006101000a81548160ff0219169083151502179055508173ffffffffffffffffffffffffffffffffffffffff168373ffffffffffffffffffffffffffffffffffffffff167f17307eab39ab6107e8899845ad3d59bd9653f200f220920489ca2b5937696c3183604051611550919061282b565b60405180910390a3505050565b611568848484611081565b611574848484846118d8565b6115b3576040517f08c379a00000000000000000000000000000000000000000000000000000000081526004016115aa90612888565b60405180910390fd5b50505050565b60606040518060800160405280605081526020016133ca60509139905090565b60606000821415611621576040518060400160405280600181526020017f30000000000000000000000000000000000000000000000000000000000000008152509050611781565b600082905060005b6000821461165357808061163c90612d30565b915050600a8261164c9190612bb2565b9150611629565b60008167ffffffffffffffff811115611695577f4e487b7100000000000000000000000000000000000000000000000000000000600052604160045260246000fd5b6040519080825280601f01601f1916602001820160405280156116c75781602001600182028036833780820191505090505b5090505b6000851461177a576001826116e09190612be3565b9150600a856116ef9190612d79565b60306116fb9190612b5c565b60f81b818381518110611737577f4e487b7100000000000000000000000000000000000000000000000000000000600052603260045260246000fd5b60200101907effffffffffffffffffffffffffffffffffffffffffffffffffffffffffffff1916908160001a905350600a856117739190612bb2565b94506116cb565b8093505050505b919050565b60007f80ac58cd000000000000000000000000000000000000000000000000000000007bffffffffffffffffffffffffffffffffffffffffffffffffffffffff1916827bffffffffffffffffffffffffffffffffffffffffffffffffffffffff1916148061185157507f5b5e139f000000000000000000000000000000000000000000000000000000007bffffffffffffffffffffffffffffffffffffffffffffffffffffffff1916827bffffffffffffffffffffffffffffffffffffffffffffffffffffffff1916145b80611861575061186082611a6f565b5b9050919050565b611873838383611ad9565b505050565b505050565b6118878383611bed565b61189460008484846118d8565b6118d3576040517f08c379a00000000000000000000000000000000000000000000000000000000081526004016118ca90612888565b60405180910390fd5b505050565b60006118f98473ffffffffffffffffffffffffffffffffffffffff16611dc7565b15611a62578373ffffffffffffffffffffffffffffffffffffffff1663150b7a02611922610ee2565b8786866040518563ffffffff1660e01b815260040161194494939291906127df565b602060405180830381600087803b15801561195e57600080fd5b505af192505050801561198f57506040513d601f19601f8201168201806040525081019061198c9190612408565b60015b611a12573d80600081146119bf576040519150601f19603f3d011682016040523d82523d6000602084013e6119c4565b606091505b50600081511415611a0a576040517f08c379a0000000000000000000000000000000000000000000000000000000008152600401611a0190612888565b60405180910390fd5b805181602001fd5b63150b7a0260e01b7bffffffffffffffffffffffffffffffffffffffffffffffffffffffff1916817bffffffffffffffffffffffffffffffffffffffffffffffffffffffff191614915050611a67565b600190505b949350505050565b60007f01ffc9a7000000000000000000000000000000000000000000000000000000007bffffffffffffffffffffffffffffffffffffffffffffffffffffffff1916827bffffffffffffffffffffffffffffffffffffffffffffffffffffffff1916149050919050565b611ae4838383611dea565b600073ffffffffffffffffffffffffffffffffffffffff168373ffffffffffffffffffffffffffffffffffffffff161415611b2757611b2281611def565b611b66565b8173ffffffffffffffffffffffffffffffffffffffff168373ffffffffffffffffffffffffffffffffffffffff1614611b6557611b648382611e38565b5b5b600073ffffffffffffffffffffffffffffffffffffffff168273ffffffffffffffffffffffffffffffffffffffff161415611ba957611ba481611fa5565b611be8565b8273ffffffffffffffffffffffffffffffffffffffff168273ffffffffffffffffffffffffffffffffffffffff1614611be757611be682826120e8565b5b5b505050565b600073ffffffffffffffffffffffffffffffffffffffff168273ffffffffffffffffffffffffffffffffffffffff161415611c5d576040517f08c379a0000000000000000000000000000000000000000000000000000000008152600401611c54906129c8565b60405180910390fd5b611c6681610e76565b15611ca6576040517f08c379a0000000000000000000000000000000000000000000000000000000008152600401611c9d906128e8565b60405180910390fd5b611cb260008383611868565b6001600360008473ffffffffffffffffffffffffffffffffffffffff1673ffffffffffffffffffffffffffffffffffffffff1681526020019081526020016000206000828254611d029190612b5c565b92505081905550816002600083815260200190815260200160002060006101000a81548173ffffffffffffffffffffffffffffffffffffffff021916908373ffffffffffffffffffffffffffffffffffffffff160217905550808273ffffffffffffffffffffffffffffffffffffffff16600073ffffffffffffffffffffffffffffffffffffffff167fddf252ad1be2c89b69c2b068fc378daa952ba7f163c4a11628f55a4df523b3ef60405160405180910390a4611dc360008383611878565b5050565b6000808273ffffffffffffffffffffffffffffffffffffffff163b119050919050565b505050565b6008805490506009600083815260200190815260200160002081905550600881908060018154018082558091505060019003906000526020600020016000909190919091505550565b60006001611e4584610955565b611e4f9190612be3565b9050600060076000848152602001908152602001600020549050818114611f34576000600660008673ffffffffffffffffffffffffffffffffffffffff1673ffffffffffffffffffffffffffffffffffffffff168152602001908152602001600020600084815260200190815260200160002054905080600660008773ffffffffffffffffffffffffffffffffffffffff1673ffffffffffffffffffffffffffffffffffffffff168152602001908152602001600020600084815260200190815260200160002081905550816007600083815260200190815260200160002081905550505b6007600084815260200190815260200160002060009055600660008573ffffffffffffffffffffffffffffffffffffffff1673ffffffffffffffffffffffffffffffffffffffff16815260200190815260200160002060008381526020019081526020016000206000905550505050565b60006001600880549050611fb99190612be3565b905060006009600084815260200190815260200160002054905060006008838154811061200f577f4e487b7100000000000000000000000000000000000000000000000000000000600052603260045260246000fd5b906000526020600020015490508060088381548110612057577f4e487b7100000000000000000000000000000000000000000000000000000000600052603260045260246000fd5b9060005260206000200181905550816009600083815260200190815260200160002081905550600960008581526020019081526020016000206000905560088054806120cc577f4e487b7100000000000000000000000000000000000000000000000000000000600052603160045260246000fd5b6001900381819060005260206000200160009055905550505050565b60006120f383610955565b905081600660008573ffffffffffffffffffffffffffffffffffffffff1673ffffffffffffffffffffffffffffffffffffffff168152602001908152602001600020600083815260200190815260200160002081905550806007600084815260200190815260200160002081905550505050565b600061217a61217584612ae8565b612ac3565b90508281526020810184848401111561219257600080fd5b61219d848285612c8b565b509392505050565b6000813590506121b48161336d565b92915050565b6000813590506121c981613384565b92915050565b6000813590506121de8161339b565b92915050565b6000815190506121f38161339b565b92915050565b600082601f83011261220a57600080fd5b813561221a848260208601612167565b91505092915050565b600081359050612232816133b2565b92915050565b60006020828403121561224a57600080fd5b6000612258848285016121a5565b91505092915050565b6000806040838503121561227457600080fd5b6000612282858286016121a5565b9250506020612293858286016121a5565b9150509250929050565b6000806000606084860312156122b257600080fd5b60006122c0868287016121a5565b93505060206122d1868287016121a5565b92505060406122e286828701612223565b9150509250925092565b6000806000806080858703121561230257600080fd5b6000612310878288016121a5565b9450506020612321878288016121a5565b935050604061233287828801612223565b925050606085013567ffffffffffffffff81111561234f57600080fd5b61235b878288016121f9565b91505092959194509250565b6000806040838503121561237a57600080fd5b6000612388858286016121a5565b9250506020612399858286016121ba565b9150509250929050565b600080604083850312156123b657600080fd5b60006123c4858286016121a5565b92505060206123d585828601612223565b9150509250929050565b6000602082840312156123f157600080fd5b60006123ff848285016121cf565b91505092915050565b60006020828403121561241a57600080fd5b6000612428848285016121e4565b91505092915050565b60006020828403121561244357600080fd5b600061245184828501612223565b91505092915050565b61246381612c17565b82525050565b61247281612c29565b82525050565b600061248382612b19565b61248d8185612b2f565b935061249d818560208601612c9a565b6124a681612e66565b840191505092915050565b60006124bc82612b24565b6124c68185612b40565b93506124d6818560208601612c9a565b6124df81612e66565b840191505092915050565b60006124f582612b24565b6124ff8185612b51565b935061250f818560208601612c9a565b80840191505092915050565b6000612528602b83612b40565b915061253382612e77565b604082019050919050565b600061254b603283612b40565b915061255682612ec6565b604082019050919050565b600061256e602683612b40565b915061257982612f15565b604082019050919050565b6000612591602583612b40565b915061259c82612f64565b604082019050919050565b60006125b4601c83612b40565b91506125bf82612fb3565b602082019050919050565b60006125d7602483612b40565b91506125e282612fdc565b604082019050919050565b60006125fa601983612b40565b91506126058261302b565b602082019050919050565b600061261d602c83612b40565b915061262882613054565b604082019050919050565b6000612640603883612b40565b915061264b826130a3565b604082019050919050565b6000612663602a83612b40565b915061266e826130f2565b604082019050919050565b6000612686602983612b40565b915061269182613141565b604082019050919050565b60006126a9602083612b40565b91506126b482613190565b602082019050919050565b60006126cc602c83612b40565b91506126d7826131b9565b604082019050919050565b60006126ef602083612b40565b91506126fa82613208565b602082019050919050565b6000612712602f83612b40565b915061271d82613231565b604082019050919050565b6000612735602183612b40565b915061274082613280565b604082019050919050565b6000612758603183612b40565b9150612763826132cf565b604082019050919050565b600061277b602c83612b40565b91506127868261331e565b604082019050919050565b61279a81612c81565b82525050565b60006127ac82856124ea565b91506127b882846124ea565b91508190509392505050565b60006020820190506127d9600083018461245a565b92915050565b60006080820190506127f4600083018761245a565b612801602083018661245a565b61280e6040830185612791565b81810360608301526128208184612478565b905095945050505050565b60006020820190506128406000830184612469565b92915050565b6000602082019050818103600083015261286081846124b1565b905092915050565b600060208201905081810360008301526128818161251b565b9050919050565b600060208201905081810360008301526128a18161253e565b9050919050565b600060208201905081810360008301526128c181612561565b9050919050565b600060208201905081810360008301526128e181612584565b9050919050565b60006020820190508181036000830152612901816125a7565b9050919050565b60006020820190508181036000830152612921816125ca565b9050919050565b60006020820190508181036000830152612941816125ed565b9050919050565b6000602082019050818103600083015261296181612610565b9050919050565b6000602082019050818103600083015261298181612633565b9050919050565b600060208201905081810360008301526129a181612656565b9050919050565b600060208201905081810360008301526129c181612679565b9050919050565b600060208201905081810360008301526129e18161269c565b9050919050565b60006020820190508181036000830152612a01816126bf565b9050919050565b60006020820190508181036000830152612a21816126e2565b9050919050565b60006020820190508181036000830152612a4181612705565b9050919050565b60006020820190508181036000830152612a6181612728565b9050919050565b60006020820190508181036000830152612a818161274b565b9050919050565b60006020820190508181036000830152612aa18161276e565b9050919050565b6000602082019050612abd6000830184612791565b92915050565b6000612acd612ade565b9050612ad98282612cff565b919050565b6000604051905090565b600067ffffffffffffffff821115612b0357612b02612e37565b5b612b0c82612e66565b9050602081019050919050565b600081519050919050565b600081519050919050565b600082825260208201905092915050565b600082825260208201905092915050565b600081905092915050565b6000612b6782612c81565b9150612b7283612c81565b9250827fffffffffffffffffffffffffffffffffffffffffffffffffffffffffffffffff03821115612ba757612ba6612daa565b5b828201905092915050565b6000612bbd82612c81565b9150612bc883612c81565b925082612bd857612bd7612dd9565b5b828204905092915050565b6000612bee82612c81565b9150612bf983612c81565b925082821015612c0c57612c0b612daa565b5b828203905092915050565b6000612c2282612c61565b9050919050565b60008115159050919050565b60007fffffffff0000000000000000000000000000000000000000000000000000000082169050919050565b600073ffffffffffffffffffffffffffffffffffffffff82169050919050565b6000819050919050565b82818337600083830152505050565b60005b83811015612cb8578082015181840152602081019050612c9d565b83811115612cc7576000848401525b50505050565b60006002820490506001821680612ce557607f821691505b60208210811415612cf957612cf8612e08565b5b50919050565b612d0882612e66565b810181811067ffffffffffffffff82111715612d2757612d26612e37565b5b80604052505050565b6000612d3b82612c81565b91507fffffffffffffffffffffffffffffffffffffffffffffffffffffffffffffffff821415612d6e57612d6d612daa565b5b600182019050919050565b6000612d8482612c81565b9150612d8f83612c81565b925082612d9f57612d9e612dd9565b5b828206905092915050565b7f4e487b7100000000000000000000000000000000000000000000000000000000600052601160045260246000fd5b7f4e487b7100000000000000000000000000000000000000000000000000000000600052601260045260246000fd5b7f4e487b7100000000000000000000000000000000000000000000000000000000600052602260045260246000fd5b7f4e487b7100000000000000000000000000000000000000000000000000000000600052604160045260246000fd5b6000601f19601f8301169050919050565b7f455243373231456e756d657261626c653a206f776e657220696e646578206f7560008201527f74206f6620626f756e6473000000000000000000000000000000000000000000602082015250565b7f4552433732313a207472616e7366657220746f206e6f6e20455243373231526560008201527f63656976657220696d706c656d656e7465720000000000000000000000000000602082015250565b7f4f776e61626c653a206e6577206f776e657220697320746865207a65726f206160008201527f6464726573730000000000000000000000000000000000000000000000000000602082015250565b7f4552433732313a207472616e736665722066726f6d20696e636f72726563742060008201527f6f776e6572000000000000000000000000000000000000000000000000000000602082015250565b7f4552433732313a20746f6b656e20616c7265616479206d696e74656400000000600082015250565b7f4552433732313a207472616e7366657220746f20746865207a65726f2061646460008201527f7265737300000000000000000000000000000000000000000000000000000000602082015250565b7f4552433732313a20617070726f766520746f2063616c6c657200000000000000600082015250565b7f4552433732313a206f70657261746f7220717565727920666f72206e6f6e657860008201527f697374656e7420746f6b656e0000000000000000000000000000000000000000602082015250565b7f4552433732313a20617070726f76652063616c6c6572206973206e6f74206f7760008201527f6e6572206e6f7220617070726f76656420666f7220616c6c0000000000000000602082015250565b7f4552433732313a2062616c616e636520717565727920666f7220746865207a6560008201527f726f206164647265737300000000000000000000000000000000000000000000602082015250565b7f4552433732313a206f776e657220717565727920666f72206e6f6e657869737460008201527f656e7420746f6b656e0000000000000000000000000000000000000000000000602082015250565b7f4552433732313a206d696e7420746f20746865207a65726f2061646472657373600082015250565b7f4552433732313a20617070726f76656420717565727920666f72206e6f6e657860008201527f697374656e7420746f6b656e0000000000000000000000000000000000000000602082015250565b7f4f776e61626c653a2063616c6c6572206973206e6f7420746865206f776e6572600082015250565b7f4552433732314d657461646174613a2055524920717565727920666f72206e6f60008201527f6e6578697374656e7420746f6b656e0000000000000000000000000000000000602082015250565b7f4552433732313a20617070726f76616c20746f2063757272656e74206f776e6560008201527f7200000000000000000000000000000000000000000000000000000000000000602082015250565b7f4552433732313a207472616e736665722063616c6c6572206973206e6f74206f60008201527f776e6572206e6f7220617070726f766564000000000000000000000000000000602082015250565b7f455243373231456e756d657261626c653a20676c6f62616c20696e646578206f60008201527f7574206f6620626f756e64730000000000000000000000000000000000000000602082015250565b61337681612c17565b811461338157600080fd5b50565b61338d81612c29565b811461339857600080fd5b50565b6133a481612c35565b81146133af57600080fd5b50565b6133bb81612c81565b81146133c657600080fd5b5056fe68747470733a2f2f676174657761792e70696e6174612e636c6f75642f697066732f516d62435573396369436e737661694a7a4a334a7a47516d7152705a62334e46796f357a56666f5758354c6e3153a264697066735822122002d540448bd6b5247b9888105e79b0904ff5213caa40e8e04096012e252cc5c164736f6c63430008040033",
  "linkReferences": {},
  "deployedLinkReferences": {}
}